{
  "contractName": "Voting",
  "abi": [
    {
      "constant": true,
      "inputs": [
        {
          "name": "candidate",
          "type": "bytes32"
        }
      ],
      "name": "totalVotesFor",
      "outputs": [
        {
          "name": "",
          "type": "uint8"
        }
      ],
      "payable": false,
      "stateMutability": "view",
      "type": "function"
    },
    {
      "constant": true,
      "inputs": [
        {
          "name": "candidate",
          "type": "bytes32"
        }
      ],
      "name": "validCandidate",
      "outputs": [
        {
          "name": "",
          "type": "bool"
        }
      ],
      "payable": false,
      "stateMutability": "view",
      "type": "function"
    },
    {
      "constant": true,
      "inputs": [
        {
          "name": "",
          "type": "bytes32"
        }
      ],
      "name": "votesReceived",
      "outputs": [
        {
          "name": "",
          "type": "uint8"
        }
      ],
      "payable": false,
      "stateMutability": "view",
      "type": "function"
    },
    {
      "constant": true,
      "inputs": [
        {
          "name": "",
          "type": "uint256"
        }
      ],
      "name": "candidateList",
      "outputs": [
        {
          "name": "",
          "type": "bytes32"
        }
      ],
      "payable": false,
      "stateMutability": "view",
      "type": "function"
    },
    {
      "constant": false,
      "inputs": [
        {
          "name": "candidate",
          "type": "bytes32"
        }
      ],
      "name": "voteForCandidate",
      "outputs": [],
      "payable": false,
      "stateMutability": "nonpayable",
      "type": "function"
    },
    {
      "inputs": [],
      "payable": false,
      "stateMutability": "nonpayable",
      "type": "constructor"
    }
  ],
  "bytecode": "0x6060604052341561000f57600080fd5b600180548060010182816100239190610101565b916000526020600020900160007f7a68616e6700000000000000000000000000000000000000000000000000000090919091509060001916905550600180548060010182816100729190610101565b916000526020600020900160007f62696e000000000000000000000000000000000000000000000000000000000090919091509060001916905550600180548060010182816100c19190610101565b916000526020600020900160007f6368656e6700000000000000000000000000000000000000000000000000000090919091509060001916905550610152565b81548183558181151161012857818360005260206000209182019101610127919061012d565b5b505050565b61014f91905b8082111561014b576000816000905550600101610133565b5090565b90565b61030b806101616000396000f30060606040526004361061006d576000357c0100000000000000000000000000000000000000000000000000000000900463ffffffff1680632f265cf714610072578063392e6678146100b35780637021939f146100f2578063b13c744b14610133578063cc9ab26714610172575b600080fd5b341561007d57600080fd5b610097600480803560001916906020019091905050610199565b604051808260ff1660ff16815260200191505060405180910390f35b34156100be57600080fd5b6100d86004808035600019169060200190919050506101de565b604051808215151515815260200191505060405180910390f35b34156100fd57600080fd5b61011760048080356000191690602001909190505061023e565b604051808260ff1660ff16815260200191505060405180910390f35b341561013e57600080fd5b610154600480803590602001909190505061025e565b60405180826000191660001916815260200191505060405180910390f35b341561017d57600080fd5b610197600480803560001916906020019091905050610282565b005b60006101a4826101de565b15156101af57600080fd5b600080836000191660001916815260200190815260200160002060009054906101000a900460ff169050919050565b600080600090505b60018054905081101561023357826000191660018281548110151561020757fe5b9060005260206000209001546000191614156102265760019150610238565b80806001019150506101e6565b600091505b50919050565b60006020528060005260406000206000915054906101000a900460ff1681565b60018181548110151561026d57fe5b90600052602060002090016000915090505481565b61028b816101de565b151561029657600080fd5b6001600080836000191660001916815260200190815260200160002060008282829054906101000a900460ff160192506101000a81548160ff021916908360ff160217905550505600a165627a7a7230582032159656eb675f1017be6071af3f77c143eb4513df2b5692391c841ad40632890029",
  "source": "pragma solidity ^0.4.18; \ncontract Voting {\n\n  mapping (bytes32 => uint8) public votesReceived;\n  \n  \n  bytes32[] public candidateList;\n\n  function Voting() public {\n    candidateList.push(\"zhang\");\n    candidateList.push(\"bin\");\n    candidateList.push(\"cheng\");\n  }\n\n  function totalVotesFor(bytes32 candidate) view public returns (uint8) {\n    require(validCandidate(candidate));\n    return votesReceived[candidate];\n  }\n\n  function voteForCandidate(bytes32 candidate) public {\n    require(validCandidate(candidate));\n    votesReceived[candidate] += 1;\n  }\n\n  function validCandidate(bytes32 candidate) view public returns (bool) {\n    for(uint i = 0; i < candidateList.length; i++) {\n      if (candidateList[i] == candidate) {\n        return true;\n      }\n    }\n    return false;\n  }\n}\n\n",
  "sourcePath": "/home/yue/文档/Voting/contracts/Voting.sol",
  "compiler": {
    "name": "solc",
    "version": "0.4.18+commit.9cf6e910.Emscripten.clang"
  },
  "schemaVersion": "1.0.1",
  "updatedAt": "2018-01-31T19:03:27.842Z"
}